{
  "_format": "hh-sol-artifact-1",
  "contractName": "GHOUnicorns",
  "sourceName": "contracts/GHOUnicorns.sol",
  "abi": [
    {
      "inputs": [
        {
          "internalType": "address",
          "name": "_ghoToken",
          "type": "address"
        },
        {
          "internalType": "address",
          "name": "_positInfo",
          "type": "address"
        }
      ],
      "stateMutability": "nonpayable",
      "type": "constructor"
    },
    {
      "inputs": [],
      "name": "Loan2Value",
      "outputs": [
        {
          "internalType": "uint256",
          "name": "",
          "type": "uint256"
        }
      ],
      "stateMutability": "view",
      "type": "function"
    },
    {
      "inputs": [],
      "name": "ghoToken",
      "outputs": [
        {
          "internalType": "contract IGHO",
          "name": "",
          "type": "address"
        }
      ],
      "stateMutability": "view",
      "type": "function"
    },
    {
      "inputs": [],
      "name": "liquidRatio",
      "outputs": [
        {
          "internalType": "uint256",
          "name": "",
          "type": "uint256"
        }
      ],
      "stateMutability": "view",
      "type": "function"
    },
    {
      "inputs": [
        {
          "internalType": "address",
          "name": "operator",
          "type": "address"
        },
        {
          "internalType": "address",
          "name": "from",
          "type": "address"
        },
        {
          "internalType": "uint256",
          "name": "tokenId",
          "type": "uint256"
        },
        {
          "internalType": "bytes",
          "name": "data",
          "type": "bytes"
        }
      ],
      "name": "onERC721Received",
      "outputs": [
        {
          "internalType": "bytes4",
          "name": "",
          "type": "bytes4"
        }
      ],
      "stateMutability": "nonpayable",
      "type": "function"
    },
    {
      "inputs": [],
      "name": "positInfo",
      "outputs": [
        {
          "internalType": "contract UniPositionInfo",
          "name": "",
          "type": "address"
        }
      ],
      "stateMutability": "view",
      "type": "function"
    },
    {
      "inputs": [],
      "name": "scalingFactor",
      "outputs": [
        {
          "internalType": "uint256",
          "name": "",
          "type": "uint256"
        }
      ],
      "stateMutability": "view",
      "type": "function"
    }
  ],
  "bytecode": "0x608060405234801561001057600080fd5b50604051610a56380380610a568339818101604052810190610032919061011d565b816000806101000a81548173ffffffffffffffffffffffffffffffffffffffff021916908373ffffffffffffffffffffffffffffffffffffffff16021790555080600160006101000a81548173ffffffffffffffffffffffffffffffffffffffff021916908373ffffffffffffffffffffffffffffffffffffffff160217905550505061015d565b600080fd5b600073ffffffffffffffffffffffffffffffffffffffff82169050919050565b60006100ea826100bf565b9050919050565b6100fa816100df565b811461010557600080fd5b50565b600081519050610117816100f1565b92915050565b60008060408385031215610134576101336100ba565b5b600061014285828601610108565b925050602061015385828601610108565b9150509250929050565b6108ea8061016c6000396000f3fe608060405234801561001057600080fd5b50600436106100625760003560e01c8063150b7a02146100675780635996db9114610097578063aeeda47f146100b5578063e7847a4b146100d3578063ed3437f8146100f1578063f94749d81461010f575b600080fd5b610081600480360381019061007c919061048a565b61012d565b60405161008e919061054d565b60405180910390f35b61009f6101ab565b6040516100ac91906105c7565b60405180910390f35b6100bd6101cf565b6040516100ca91906105f1565b60405180910390f35b6100db6101db565b6040516100e891906105f1565b60405180910390f35b6100f96101e7565b60405161010691906105f1565b60405180910390f35b6101176101f3565b604051610124919061062d565b60405180910390f35b6000808383905011610174576040517f08c379a000000000000000000000000000000000000000000000000000000000815260040161016b906106a5565b60405180910390fd5b600083838101906101859190610700565b62ffffff169050610197858783610219565b63150b7a0260e01b91505095945050505050565b60008054906101000a900473ffffffffffffffffffffffffffffffffffffffff1681565b670a688906bd8b000081565b670b1a2bc2ec50000081565b670de0b6b3a764000081565b600160009054906101000a900473ffffffffffffffffffffffffffffffffffffffff1681565b600080600080600160009054906101000a900473ffffffffffffffffffffffffffffffffffffffff1673ffffffffffffffffffffffffffffffffffffffff1663519f5099886040518263ffffffff1660e01b815260040161027a91906105f1565b608060405180830381865afa158015610297573d6000803e3d6000fd5b505050506040513d601f19601f820116820180604052508101906102bb919061079f565b93509350935093506000600160009054906101000a900473ffffffffffffffffffffffffffffffffffffffff1673ffffffffffffffffffffffffffffffffffffffff16634613d1358686866040518463ffffffff1660e01b815260040161032493929190610824565b602060405180830381865afa158015610341573d6000803e3d6000fd5b505050506040513d601f19601f820116820180604052508101906103659190610887565b73ffffffffffffffffffffffffffffffffffffffff1690505050505050505050565b600080fd5b600080fd5b600073ffffffffffffffffffffffffffffffffffffffff82169050919050565b60006103bc82610391565b9050919050565b6103cc816103b1565b81146103d757600080fd5b50565b6000813590506103e9816103c3565b92915050565b6000819050919050565b610402816103ef565b811461040d57600080fd5b50565b60008135905061041f816103f9565b92915050565b600080fd5b600080fd5b600080fd5b60008083601f84011261044a57610449610425565b5b8235905067ffffffffffffffff8111156104675761046661042a565b5b6020830191508360018202830111156104835761048261042f565b5b9250929050565b6000806000806000608086880312156104a6576104a5610387565b5b60006104b4888289016103da565b95505060206104c5888289016103da565b94505060406104d688828901610410565b935050606086013567ffffffffffffffff8111156104f7576104f661038c565b5b61050388828901610434565b92509250509295509295909350565b60007fffffffff0000000000000000000000000000000000000000000000000000000082169050919050565b61054781610512565b82525050565b6000602082019050610562600083018461053e565b92915050565b6000819050919050565b600061058d61058861058384610391565b610568565b610391565b9050919050565b600061059f82610572565b9050919050565b60006105b182610594565b9050919050565b6105c1816105a6565b82525050565b60006020820190506105dc60008301846105b8565b92915050565b6105eb816103ef565b82525050565b600060208201905061060660008301846105e2565b92915050565b600061061782610594565b9050919050565b6106278161060c565b82525050565b6000602082019050610642600083018461061e565b92915050565b600082825260208201905092915050565b7f4e6f20726571756573746564206c6f616e20616d6f756e742e00000000000000600082015250565b600061068f601983610648565b915061069a82610659565b602082019050919050565b600060208201905081810360008301526106be81610682565b9050919050565b600062ffffff82169050919050565b6106dd816106c5565b81146106e857600080fd5b50565b6000813590506106fa816106d4565b92915050565b60006020828403121561071657610715610387565b5b6000610724848285016106eb565b91505092915050565b60008151905061073c816103c3565b92915050565b600081519050610751816106d4565b92915050565b60006fffffffffffffffffffffffffffffffff82169050919050565b61077c81610757565b811461078757600080fd5b50565b60008151905061079981610773565b92915050565b600080600080608085870312156107b9576107b8610387565b5b60006107c78782880161072d565b94505060206107d88782880161072d565b93505060406107e987828801610742565b92505060606107fa8782880161078a565b91505092959194509250565b61080f816103b1565b82525050565b61081e816106c5565b82525050565b60006060820190506108396000830186610806565b6108466020830185610806565b6108536040830184610815565b949350505050565b61086481610391565b811461086f57600080fd5b50565b6000815190506108818161085b565b92915050565b60006020828403121561089d5761089c610387565b5b60006108ab84828501610872565b9150509291505056fea2646970667358221220ad7eb963bacf2327399652677e490ec654dffd0bc1ee35da3ee144d51b66175664736f6c63430008150033",
  "linkReferences": {},
  "deployedLinkReferences": {}
}