{
  "_format": "hh-sol-artifact-1",
  "contractName": "UniPositionInfo",
  "sourceName": "contracts/UniPositionInfo.sol",
  "abi": [
    {
      "inputs": [
        {
          "internalType": "address",
          "name": "_nonfungiblePositionManager",
          "type": "address"
        },
        {
          "internalType": "address",
          "name": "_factory",
          "type": "address"
        }
      ],
      "stateMutability": "nonpayable",
      "type": "constructor"
    },
    {
      "inputs": [],
      "name": "factory",
      "outputs": [
        {
          "internalType": "contract IUniswapV3Factory",
          "name": "",
          "type": "address"
        }
      ],
      "stateMutability": "view",
      "type": "function"
    },
    {
      "inputs": [
        {
          "internalType": "uint256",
          "name": "tokenId",
          "type": "uint256"
        }
      ],
      "name": "getPositionInfo",
      "outputs": [
        {
          "internalType": "address",
          "name": "",
          "type": "address"
        },
        {
          "internalType": "address",
          "name": "",
          "type": "address"
        },
        {
          "internalType": "uint24",
          "name": "",
          "type": "uint24"
        },
        {
          "internalType": "uint128",
          "name": "",
          "type": "uint128"
        }
      ],
      "stateMutability": "view",
      "type": "function"
    },
    {
      "inputs": [
        {
          "internalType": "address",
          "name": "token0",
          "type": "address"
        },
        {
          "internalType": "address",
          "name": "token1",
          "type": "address"
        },
        {
          "internalType": "uint24",
          "name": "fee",
          "type": "uint24"
        }
      ],
      "name": "getPrice",
      "outputs": [
        {
          "internalType": "uint160",
          "name": "",
          "type": "uint160"
        }
      ],
      "stateMutability": "view",
      "type": "function"
    },
    {
      "inputs": [],
      "name": "positionManager",
      "outputs": [
        {
          "internalType": "contract INonfungiblePositionManager",
          "name": "",
          "type": "address"
        }
      ],
      "stateMutability": "view",
      "type": "function"
    }
  ],
  "bytecode": "0x608060405234801561001057600080fd5b50604051610c72380380610c728339818101604052810190610032919061011d565b816000806101000a81548173ffffffffffffffffffffffffffffffffffffffff021916908373ffffffffffffffffffffffffffffffffffffffff16021790555080600160006101000a81548173ffffffffffffffffffffffffffffffffffffffff021916908373ffffffffffffffffffffffffffffffffffffffff160217905550505061015d565b600080fd5b600073ffffffffffffffffffffffffffffffffffffffff82169050919050565b60006100ea826100bf565b9050919050565b6100fa816100df565b811461010557600080fd5b50565b600081519050610117816100f1565b92915050565b60008060408385031215610134576101336100ba565b5b600061014285828601610108565b925050602061015385828601610108565b9150509250929050565b610b068061016c6000396000f3fe608060405234801561001057600080fd5b506004361061004c5760003560e01c80634613d13514610051578063519f509914610081578063791b98bc146100b4578063c45a0155146100d2575b600080fd5b61006b600480360381019061006691906103dc565b6100f0565b604051610078919061043e565b60405180910390f35b61009b6004803603810190610096919061048f565b610220565b6040516100ab9493929190610505565b60405180910390f35b6100bc6102ea565b6040516100c991906105a9565b60405180910390f35b6100da61030e565b6040516100e791906105e5565b60405180910390f35b600080600160009054906101000a900473ffffffffffffffffffffffffffffffffffffffff1673ffffffffffffffffffffffffffffffffffffffff16631698ee828686866040518463ffffffff1660e01b815260040161015293929190610600565b602060405180830381865afa15801561016f573d6000803e3d6000fd5b505050506040513d601f19601f82011682018060405250810190610193919061064c565b9050600081905060008173ffffffffffffffffffffffffffffffffffffffff16633850c7bd6040518163ffffffff1660e01b815260040160e060405180830381865afa1580156101e7573d6000803e3d6000fd5b505050506040513d601f19601f8201168201806040525081019061020b9190610789565b50505050505090508093505050509392505050565b60008060008060008060009054906101000a900473ffffffffffffffffffffffffffffffffffffffff1673ffffffffffffffffffffffffffffffffffffffff166399fbab88876040518263ffffffff1660e01b8152600401610282919061083a565b61018060405180830381865afa1580156102a0573d6000803e3d6000fd5b505050506040513d601f19601f820116820180604052508101906102c49190610aa2565b90508060400151816060015182608001518360e001519450945094509450509193509193565b60008054906101000a900473ffffffffffffffffffffffffffffffffffffffff1681565b600160009054906101000a900473ffffffffffffffffffffffffffffffffffffffff1681565b6000604051905090565b600080fd5b600073ffffffffffffffffffffffffffffffffffffffff82169050919050565b600061036e82610343565b9050919050565b61037e81610363565b811461038957600080fd5b50565b60008135905061039b81610375565b92915050565b600062ffffff82169050919050565b6103b9816103a1565b81146103c457600080fd5b50565b6000813590506103d6816103b0565b92915050565b6000806000606084860312156103f5576103f461033e565b5b60006104038682870161038c565b93505060206104148682870161038c565b9250506040610425868287016103c7565b9150509250925092565b61043881610343565b82525050565b6000602082019050610453600083018461042f565b92915050565b6000819050919050565b61046c81610459565b811461047757600080fd5b50565b60008135905061048981610463565b92915050565b6000602082840312156104a5576104a461033e565b5b60006104b38482850161047a565b91505092915050565b6104c581610363565b82525050565b6104d4816103a1565b82525050565b60006fffffffffffffffffffffffffffffffff82169050919050565b6104ff816104da565b82525050565b600060808201905061051a60008301876104bc565b61052760208301866104bc565b61053460408301856104cb565b61054160608301846104f6565b95945050505050565b6000819050919050565b600061056f61056a61056584610343565b61054a565b610343565b9050919050565b600061058182610554565b9050919050565b600061059382610576565b9050919050565b6105a381610588565b82525050565b60006020820190506105be600083018461059a565b92915050565b60006105cf82610576565b9050919050565b6105df816105c4565b82525050565b60006020820190506105fa60008301846105d6565b92915050565b600060608201905061061560008301866104bc565b61062260208301856104bc565b61062f60408301846104cb565b949350505050565b60008151905061064681610375565b92915050565b6000602082840312156106625761066161033e565b5b600061067084828501610637565b91505092915050565b61068281610343565b811461068d57600080fd5b50565b60008151905061069f81610679565b92915050565b60008160020b9050919050565b6106bb816106a5565b81146106c657600080fd5b50565b6000815190506106d8816106b2565b92915050565b600061ffff82169050919050565b6106f5816106de565b811461070057600080fd5b50565b600081519050610712816106ec565b92915050565b600060ff82169050919050565b61072e81610718565b811461073957600080fd5b50565b60008151905061074b81610725565b92915050565b60008115159050919050565b61076681610751565b811461077157600080fd5b50565b6000815190506107838161075d565b92915050565b600080600080600080600060e0888a0312156107a8576107a761033e565b5b60006107b68a828b01610690565b97505060206107c78a828b016106c9565b96505060406107d88a828b01610703565b95505060606107e98a828b01610703565b94505060806107fa8a828b01610703565b93505060a061080b8a828b0161073c565b92505060c061081c8a828b01610774565b91505092959891949750929550565b61083481610459565b82525050565b600060208201905061084f600083018461082b565b92915050565b600080fd5b6000601f19601f8301169050919050565b7f4e487b7100000000000000000000000000000000000000000000000000000000600052604160045260246000fd5b6108a38261085a565b810181811067ffffffffffffffff821117156108c2576108c161086b565b5b80604052505050565b60006108d5610334565b90506108e1828261089a565b919050565b60006bffffffffffffffffffffffff82169050919050565b610907816108e6565b811461091257600080fd5b50565b600081519050610924816108fe565b92915050565b600081519050610939816103b0565b92915050565b610948816104da565b811461095357600080fd5b50565b6000815190506109658161093f565b92915050565b60008151905061097a81610463565b92915050565b6000610180828403121561099757610996610855565b5b6109a26101806108cb565b905060006109b284828501610915565b60008301525060206109c684828501610637565b60208301525060406109da84828501610637565b60408301525060606109ee84828501610637565b6060830152506080610a028482850161092a565b60808301525060a0610a16848285016106c9565b60a08301525060c0610a2a848285016106c9565b60c08301525060e0610a3e84828501610956565b60e083015250610100610a538482850161096b565b61010083015250610120610a698482850161096b565b61012083015250610140610a7f84828501610956565b61014083015250610160610a9584828501610956565b6101608301525092915050565b60006101808284031215610ab957610ab861033e565b5b6000610ac784828501610980565b9150509291505056fea2646970667358221220a95c99cc2c57c1bed8f53054fba3a9bf0dbcf2bcf966b1b60948c761292dc56c64736f6c63430008150033",
  "linkReferences": {},
  "deployedLinkReferences": {}
}